:020000040800F2
:100000000004002045010008490100084B010008D8
:100010004D0100084F0100085101000800000000D8
:100020000000000000000000000000005301000874
:1000300055010008000000005701000859010008A0
:100040005B0100085B0100085B0100085B01000820
:100050005B0100085B0100085B0100085B01000810
:100060005B0100085B0100085B0100085B01000800
:100070005B0100085B0100085B0100085B010008F0
:100080005B0100085B0100085B0100085B010008E0
:100090005B0100085B0100085B0100085B010008D0
:1000A0005B0100085B0100085B0100085B010008C0
:1000B0005B0100085B0100085B0100085B010008B0
:1000C0005B0100085B0100085B0100085B010008A0
:1000D0005B0100085B0100085B0100085B01000890
:1000E0005B0100085B0100085B0100085B01000880
:1000F0005B0100085B0100085B0100085B01000870
:100100005B0100085B0100085B0100085B0100085F
:100110005B0100085B0100085B0100085B0100084F
:100120005B0100085B0100085B0100085B0100083F
:10013000DFF80CD000F014F800480047A5010008D3
:100140000004002005480047FEE7FEE7FEE7FEE763
:10015000FEE7FEE7FEE7FEE7FEE7FEE73101000807
:10016000064C074D06E0E06840F0010394E8070004
:1001700098471034AC42F6D3FFF7DEFF10020008B8
:100180002002000802E008C8121F08C1002AFAD1A4
:1001900070477047002001E001C1121F002AFBD107
:1001A0007047000000201749886001211548C16090
:1001B000012014490860486000211248C1610120F3
:1001C000104988611049086001210E48C0F80413E5
:1001D000C0F840130021C0F840130121C0F84013BB
:1001E000D0F8400360B9084840300068012807D1C2
:1001F00005E006480068C04304497C310860F8E720
:1002000000207047000021420003214204012142E6
:1002100020020008000000200004000094010008F3
:0400000508000131BD
:00000001FF
