:020000040800F2
:1000000008040020450100084D0100084F010008C8
:1000100051010008530100085501000800000000CC
:100020000000000000000000000000005701000870
:1000300059010008000000005B0100085D01000894
:100040005F0100085F0100085F0100085F01000810
:100050005F0100085F0100085F0100085F01000800
:100060005F0100085F0100085F0100085F010008F0
:100070005F0100085F0100085F0100085F010008E0
:100080005F0100085F0100085F0100085F010008D0
:100090005F0100085F0100085F0100085F010008C0
:1000A0005F0100085F0100085F0100085F010008B0
:1000B0005F0100085F0100085F0100085F010008A0
:1000C0005F0100085F0100085F0100085F01000890
:1000D0005F0100085F0100085F0100085F01000880
:1000E0005F0100085F0100085F0100085F01000870
:1000F0005F0100085F0100085F0100085F01000860
:100100005F0100085F0100085F0100085F0100084F
:100110005F0100085F0100085F0100085F0100083F
:100120005F0100085F0100085F0100085F0100082F
:10013000DFF80CD000F018F8004800474D03000825
:10014000080400200648804706480047FEE7FEE70F
:10015000FEE7FEE7FEE7FEE7FEE7FEE7FEE7FEE777
:10016000D102000831010008064C074D06E0E068A6
:1001700040F0010394E8070098471034AC42F6D3EE
:10018000FFF7DAFFD0030008F003000808B50020ED
:10019000009001204749086400BF4648406C002891
:1001A000FBD04548006840F01000434908604348D0
:1001B00000684349884205D8002042498860486069
:1001C000086017E03D4800683D4988420BD93B482C
:1001D00000684900884206D800203A498860486093
:1001E0000120086006E00020364988600120486050
:1001F0000020086000212F489C30016001212D481B
:10020000A83001600021001F0160001F0160294823
:10021000B4300160294800682B49B0FBF1F0009030
:100220000098022831D30098801E009000980F2873
:1002300001D90F20009025484068009940EA81408C
:100240002249486000211B48C43001600121001F81
:10025000016001201749086600BF1648406E00285B
:10026000FBD0012113488430016000201149803106
:10027000086000BF0F488C3000680128FAD10D4893
:10028000883000680028F5D112E000210948843048
:100290000160012007498031086000BF05488C30AB
:1002A00000680028FAD10348883000680128F5D199
:1002B00008BD000000004242002002400000002073
:1002C00000366E010000444200127A000010024025
:1002D00010B501200E4908600E4840680E490840DC
:1002E0000C49486000200A490864C86408668864AC
:1002F0000848406820F4FE00064948604FF41F009B
:100300008860FFF743FF4FF000600449086010BDAC
:1003100000004242001002400000FFF808ED00E03B
:1003200002E008C8121F08C1002AFAD170477047BE
:10033000002001E001C1121F002AFBD1704700BF5D
:100340000100A0F10100FBD17047000001211C4811
:1003500001601C48C1640021816441640020194986
:10036000086401211848016000211648C1668166B1
:100370000121416601201349086601211248083015
:10038000016000210F48C16581650121416501209F
:100390000C49086500210C48001D01600FE00A4867
:1003A00008300068C143084808300160001F006839
:1003B000C1430548001D01600448FFF7C0FFEEE798
:1003C00018034242000023429001234240420F00A2
:1003D000F0030008000000200400000020030008D3
:1003E000F4030008040000200404000030030008A7
:0403F00000A24A0419
:0400000508000131BD
:00000001FF
