:020000040800F2
:1000000018040020450100084D0100084F010008B8
:1000100051010008530100085501000800000000CC
:100020000000000000000000000000005701000870
:1000300059010008000000005B0100085D01000894
:100040005F0100085F0100085F0100085F01000810
:100050005F0100085F0100085F0100085F01000800
:100060005F0100085F0100085F0100085F010008F0
:100070005F0100085F0100085F0100085F010008E0
:100080005F0100085F0100085F0100085F010008D0
:100090005F0100085F0100085F0100085F010008C0
:1000A0005F0100085F0100085F0100085F010008B0
:1000B0005F0100085F0100085F0100085F010008A0
:1000C0005F0100085F0100085F0100085F01000890
:1000D0005F0100085F0100085F0100085F01000880
:1000E0005F0100085F0100085F0100085F01000870
:1000F0005F0100085F0100085F0100085F01000860
:100100005F0100085F0100085F0100085F0100084F
:100110005F0100085F0100085F0100085F0100083F
:100120005F0100085F0100085F0100085F0100082F
:10013000DFF80CD000F018F800480047A5020008CE
:10014000180400200648804706480047FEE7FEE7FF
:10015000FEE7FEE7FEE7FEE7FEE7FEE7FEE7FEE777
:100160003502000831010008064C074D06E0E06842
:1001700040F0010394E8070098471034AC42F6D3EE
:10018000FFF7DAFF0C0300082C03000808B5002075
:10019000009001202149086400BF2048406C0028DD
:1001A000FBD01F48006840F010001D490860002087
:1001B0001C49886001204860002008600021174821
:1001C0009C30016001211548A83001600021001F0A
:1001D0000160001F01601148B430016012480068DE
:1001E0001249B0FBF1F000900098801E009010487A
:1001F0004068009940EA81400D4948600120074964
:10020000086600BF0548406E0028FBD00121034866
:10021000843001600021016008BD000000004242FE
:1002200000200240000044420000002000127A003A
:100230000010024010B501200E4908600E484068C9
:100240000E4908400C49486000200A490864C86407
:10025000086688640848406820F4FE000649486043
:100260004FF41F008860FFF791FF4FF000600449D2
:10027000086010BD00004242001002400000FFF87C
:1002800008ED00E002E008C8121F08C1002AFAD1F8
:1002900070477047002001E001C1121F002AFBD106
:1002A000704700000121164801601648C164002112
:1002B00081644164002013490864012112480160EF
:1002C00000211048C16681660121416601200D4967
:1002D000086601210C480830016010E00A488038A7
:1002E000006860B900BF0848803800680028FAD06C
:1002F000054808300068C143034808300160EDE755
:100300001803424200002342900123422C030008BC
:1003100000000020140000008402000840030008D0
:1003200014000020040400009402000800A24A0403
:100330000000000000000000010203040607080995
:0400000508000131BD
:00000001FF
