:020000042000DA
:10000000D0B40020CD010020D5010020D701002070
:10001000D9010020DB010020DD01002000000000EC
:10002000000000000000000000000000DF010020D0
:10003000E101002000000000E3010020E5010020B4
:10004000E7010020E7010020E7010020E701002090
:10005000E7010020E7010020E7010020E701002080
:10006000E7010020E7010020F9020020E70100205D
:10007000E7010020E7010020E7010020E701002060
:10008000E7010020E7010020E7010020E701002050
:10009000E7010020E7010020E7010020E701002040
:1000A000E701002031050020E7010020E7010020E2
:1000B000E7010020E7010020E7010020E701002020
:1000C000E7010020E7010020E7010020E701002010
:1000D000E70100206D060020E7010020E701002075
:1000E000E7010020E7010020E7010020E7010020F0
:1000F000E7010020E7010020E7010020E7010020E0
:10010000E7010020E7010020E7010020E7010020CF
:10011000E7010020E7010020E7010020E7010020BF
:10012000E7010020E7010020E7010020E7010020AF
:1001300000F002F800F03AF80AA090E8000C8244BF
:100140008344AAF10107DA4501D100F02FF8AFF29C
:10015000090EBAE80F0013F0010F18BFFB1A43F0A5
:1001600001031847A40C0000C40C0000103A24BF7F
:1001700078C878C1FAD8520724BF30C830C144BF0C
:1001800004680C607047000000230024002500264E
:10019000103A28BF78C1FBD8520728BF30C148BFEA
:1001A0000B6070471FB51FBD10B510BD00F02FF8D4
:1001B0001146FFF7F7FF00F0B5FA00F04DF803B471
:1001C000FFF7F2FF03BC00F051F800000948804738
:1001D00009480047FEE7FEE7FEE7FEE7FEE7FEE729
:1001E000FEE7FEE7FEE7FEE704480549034A054B44
:1001F00070470000E104002031010020D0B0002051
:10020000D0B40020D0B000207047704770477546CA
:1002100000F028F8AE4605006946534620F0070076
:10022000854618B020B5FFF7DFFFBDE820404FF04E
:1002300000064FF000074FF000084FF0000B21F0D0
:100240000701AC46ACE8C009ACE8C009ACE8C0099D
:10025000ACE8C0098D4670470446AFF300802046E5
:10026000FFF7ADFF0048704770B00020014918202B
:10027000ABBEFEE7260002007047000010B500226A
:100280000A21032000F056F81648006810B9012131
:100290001448016001211448C16400218164416453
:1002A00000201149086401211048016001200D4916
:1002B0001839086000210E48C0F88C110121C0F8DF
:1002C00088110021C0F88411C0F88011012009496B
:1002D000086100210748C0F810110121C0F89011F1
:1002E00010BD000018034242000023429001234247
:1002F000000020420080204206480068012807D103
:1003000001210448016004480068C14302480160BB
:1003100070470000908220429801234200F01F02A3
:10032000012191404209920002F1E022C2F800113D
:100330007047000070B504460D46164600BF04F035
:1003400007010A4A10684FF6FF021040084A0243AC
:1003500042EA0120054A106000BF3146284600F0FD
:1003600009F82846FFF7DAFF70BD00000CED00E049
:100370000000FA0510B5002807DA0A07140E054A2E
:1003800000F00F031B1FD45403E00A07130E024AA8
:10039000135410BD18ED00E000E400E008B50020A3
:1003A000009001204749086400BF4648406C00287F
:1003B000FBD04548006840F01000434908604348BE
:1003C00000684349884205D8002042498860486057
:1003D000086017E03D4800683D4988420BD93B481A
:1003E00000684900884206D800203A498860486081
:1003F0000120086006E0002036498860012048603E
:100400000020086000212F489C30016001212D4808
:10041000A83001600021001F0160001F0160294811
:10042000B4300160294800682B49B0FBF1F000901E
:100430000098022831D30098801E009000980F2861
:1004400001D90F20009025484068009940EA81407A
:100450002249486000211B48C43001600121001F6F
:10046000016001201749086600BF1648406E002849
:10047000FBD00121134884300160002011498031F4
:10048000086000BF0F488C3000680128FAD10D4881
:10049000883000680028F5D112E000210948843036
:1004A0000160012007498031086000BF05488C3099
:1004B00000680028FAD10348883000680128F5D187
:1004C00008BD0000000042420020024000B00020B1
:1004D00000366E010000444200127A000010024013
:1004E00010B501200E4908600E4840680E490840CA
:1004F0000C49486000200A490864C864086688649A
:100500000848406820F4FE00064948604FF41F0088
:100510008860FFF743FF4FF000500449086010BDAA
:1005200000004242001002400000FFF808ED00E029
:100530001748006838B31748007828B11648008873
:10054000401C1549088004E013480088401E1249E9
:1005500008801148008840F2DE31884205DD0846F7
:100560000D49088000200B4908700B4800880128BD
:1005700002DA012007490870074800880749088007
:10058000002003490860002004492439088070478E
:100590000082254208B0002006B00020342C014023
:1005A00010B52948006810B90121274801600121D0
:1005B0002648016001202549091F086001212348C0
:1005C0008438C0F88C100021C0F88810022219214C
:1005D0000320FFF7AFFE01211D48C0F82C13C0F81F
:1005E000AC110021C0F8AC1101201A49C86140F2D9
:1005F000E730194908804720091F08800020154965
:100600000861C1F800020120144908600121114865
:10061000C0F81813C0F81413C0F81013C0F80C1366
:100620000F4801600F4800880B49083108800121FC
:100630000848C0F8041401200B4908600549086007
:10064000C1F8800210BD000008034242840021422C
:1006500000004242008025422C2C0140808125422E
:10066000BC88254206B000200084254210B5002435
:100670001E480068012818D11D484069012814D17E
:100680001C480088C4B20020194948611A48007803
:10069000642802DD002018490870174801780078A6
:1006A000401C154A1070154844541048001F00683B
:1006B00001281AD10E480069012816D10D4800887A
:1006C000C4B20F48006808B9012100E000210C48BD
:1006D00001600121084800F0E5F807480178074863
:1006E00000F0E0F800200449087010BD9401274292
:1006F000000027420438014004B000200CB0002064
:10070000980123420549088000BF054989690029ED
:10071000FBD00021024A916170470000043801407B
:100720000000274201212348016000212248C166C0
:1007300081660121416601201F49086601211F4889
:10074000016000211C48416500201B49086501210A
:100750001948C1650021816501211848001F016009
:100760004FF4E13000F02EF8FFF788FDFFF718FF97
:100770000121104810380160114801600120104922
:10078000091F086001210E489438C0F89C10002110
:10079000C0F89810C0F8A410002009499439C1F895
:1007A000A00000210648183001600121001F0160EF
:1007B00000BFFEE718034242000023429801234293
:1007C000940021422DE9F04707460024002601212C
:1007D0002F4801602F48016000210160384600F079
:1007E000B3F981462C48006800F0AEF982464946CC
:1007F00000F0C8F880464FF0834100F0C3F805468A
:10080000284600F081F984B2284600F07DF981463F
:1008100000F09AF98046294600F076FA05464FF036
:100820008341284600F0A4F90546284600F06CF9FB
:1008300086B206F00F061948008830431749088031
:100840004FF6FF7000EA04144FF6F07004400846BB
:100850000088204308800121114801600021001F09
:1008600001600F480C38016001210D4828380160F3
:10087000001F01602520FFF77DFD2520FFF74EFDBD
:100880000121074824380160001D0160BDE8F087A0
:1008900038034242B801424200B00020083801400B
:1008A000B401274210B503460C4603E01878FFF761
:1008B00029FF5B1C2000A4F10101CCB2F6D110BDD0
:1008C00090EA010F48BF81F0004100F12E82421AE8
:1008D0003CBF801A89184FEAD0524FF07F4C1CEA77
:1008E000410FA2EBD15318BF9CEA026F00F03B808E
:1008F0004FF0004C4CEA00204CEA012121FA03FCA5
:1009000010EB0C0C1ED202F1FF325FEA1C2040EB10
:10091000C25038BF70471CF07F0F4FEA400C18BF21
:10092000BCF17F4F38BF7047C3F12003994008BF27
:1009300020F00100BCF17F4F38BF7047A0F1C040EC
:1009400000F0DDB94FEA3C00000A40EBC25028BF7E
:100950001CF0FF0F4FEA400CE6D018BFBCF17F4FF0
:1009600038BF7047EAE79CEA026F05D010EA5C0FD7
:1009700008BF00F00040704710B500F07AF900BFE2
:1009800064FBBE3E4FF47F0C1CEAD0121EBF1CEA73
:10099000D11392EA0C0F93EA0C0F00F0858090EAD5
:1009A000010F48BF42F4807240F4000C41F4000093
:1009B0002CF07F4120F07F4000B58142A2EB030282
:1009C0000FF2081CACEB504EC0F100009EF800E0A6
:1009D0004FEA4E0E00FB0EFC38BF49004FEA2C1CBC
:1009E00002F5FA020CFB0EF34FEACE1E4FEA112C71
:1009F0004FEAC1210EEB635E42EB22420EFB0CFC80
:100A00004FEA1C5300FB03114FEA112C4FEA01314E
:100A10000EFB0CFC4FEADC4C00FB0C11C14228BF62
:100A200009184CEB03335DF804EB10EB410143EB89
:100A3000C250B2F57C0F38BF704729D512F0F00FC5
:100A40001CBF00F1C04000F000407047008182836D
:100A50008485868788898B8C8D8E8F9192939596CD
:100A600097999A9C9D9FA0A2A3A5A7A8AAACAEB057
:100A7000B2B3B5B7B9BCBEC0C2C5C7C9CCCED1D45C
:100A8000D7D9DCDFE2E6E9ECF0F3F7FAFE0000008C
:100A90004FEA400C0CF1807CBCF17E4F28BF7047C0
:100AA000B0F1C04000F02BB990EA010F0CEAD1136D
:100AB00048BF42F48072624538BF634507D213F4E1
:100AC0007F0F16D080EA010000F00040704710B59B
:100AD00000F0CFF8097EFC3E00F005B880EA010086
:100AE00000F00040704780EA010000F0004000F094
:100AF00006B912F47F0F04BF0248704780EA010074
:100B000000F0FDB80000C07FC10DD1F19E0206DBF0
:100B10004FEA002343F0004323FA02F070470042FB
:100B200007D54FEA4001B1F1FE4F02D24FF000006D
:100B3000704710B500F09DF849922480002070475E
:100B40006FEA200070470000B0FA80F310FA03F259
:100B5000C3F19D030AD0D90501EB1220530638BF1B
:100B6000704700F1010008BF20F00100704700004D
:100B70004FF47F0C1CEAD0121EBF1CEAD11392EA7C
:100B80000C0F93EA0C0F00F0478090EA010F48BF6A
:100B900042F480724FF0004C4CEA00204CEA0121F4
:100BA00002EB0302A0FB0113A2F50002002918BF0B
:100BB00043F001035B0028BF4FEA330342EB2242BC
:100BC0005FEA132C4CEBC2502EBFBCEB436FB2F567
:100BD0007C0F70474FEA036CBCF1004F08BF20F058
:100BE0000100B2F57C0F38BF70470BD582F0FF02D1
:100BF00012F5803FC8BF704700F1C040D8BF00F079
:100C00000040704700F5000C5FEA4C0C48BF70478D
:100C1000B0F1C04000F073B890EA010F0CEAD113B4
:100C200048BF42F48072624538BF634504D280EA0F
:100C3000010000F00040704710B500F01AF800BF46
:100C40008900013E00F007B800F009B85FEA410CE6
:100C50005FEA1C6C08D080EA010000F050B85FEA3F
:100C6000400C5FEA1C6CF6D14FF00040A0F580000C
:100C700070470EF1020E2EF0030E5EF8044B244274
:100C800004D44FEA4102B2F17F4F11D84FEA40033A
:100C9000B3F17F4F0CD80ED14FEAD07CB2F17F4F29
:100CA0000CEB4C0C0CF1020C08BF4CEBD17C04E0BB
:100CB0004FF0080C01E04FEAD17C0CEB4C0324FA16
:100CC00003F404F00704B4F1040C06D20EEB840C18
:100CD000BDE810404CF0010C6047DFE80CF007085D
:100CE00002024FF00040A0F5800010BD084642000F
:100CF00018BFD2F1807288BF00F0004010BDFF2104
:100D000041EAD050C005704780F0004090EA010FE2
:100D10007FF5DDAD81F0004100F007B890EA010FEA
:100D200048BF81F000413FF5D2AD421A04D882F0AD
:100D30000042A0EB020011444FEAD0524FF07F4C2A
:100D40001CEA410FA2EBD15318BF9CEA026F4AD0B4
:100D50004FF0004C4CEA00204CEA012121FA03FC40
:100D6000B0EB0C0C0FD412F0FE0F36D05FEA4C0043
:100D70001DD5001240EBC25038BF70471CF03F0F2A
:100D800018BF70470BE0A2F101025FEA1C2040EBA4
:100D9000C25038BF70471CF07F0F18BF7047C3F1B7
:100DA0002003994014BF401E20F0010070478008C6
:100DB0004FEA122308BF7047B0FA80FCA2EB0C0286
:100DC000CCF1280C60FA0CF093EA122F04BF00EB70
:100DD000C25070474FEAC3707047130A5FEADC10D5
:100DE00008BF7047F6E79CEA026F04D010EA5C0F78
:100DF00008BF0020704710B5FFF73BFF40DFF63E0D
:100E000081F0004070470000280E002000B0002054
:100E10000C0000006C010020340E00200CB00020FB
:100E2000C40400008801002000A24A040000010060
:040E300001000000BD
:0400000520000131A5
:00000001FF
